:020000040800F2
:10000000E03B002001010008E9140008C3120008C9
:100010004D140008290300080547000800000000EF
:10002000000000000000000000000000074500087C
:10003000C104000800000000C3010008B524000846
:100040001B0100081B0100081B0100081B01000820
:100050001B0100081B0100081B0100081B01000810
:100060001B0100081B0100081B0100081B01000800
:100070001B0100081B0100081B0100081B010008F0
:100080001B0100081B0100081B0100081B010008E0
:100090001B0100081B0100081B0100081B010008D0
:1000A0001B0100081B0100081B0100081B010008C0
:1000B0001B0100081B0100081B0100081B010008B0
:1000C0001B0100081B0100081B0100081B010008A0
:1000D0001B0100081B0100081B0100081B01000890
:1000E0001B0100081B0100081B010008DFF80CD0F1
:1000F00000F044F8004800479D470008E03B00201E
:100100000648804706480047FEE7FEE7FEE7FEE7B1
:10011000FEE7FEE7FEE7FEE7FEE7FEE789450008AB
:10012000ED00000872B6704762B67047EFF31080BA
:1001300072B6704780F31088704730BF704720BF99
:100140007047B0FA80F0704790FAA0F0B0FA80F0F3
:10015000704790FAA0F07047D2B201E000F8012B8E
:10016000491EFBD270470022F6E710B513460A4637
:1001700004461946FFF7F0FF204610BD064C074D18
:1001800006E0E06840F0010394E807009847103467
:10019000AC42F6D3FFF7AEFF9C480008BC4800080D
:1001A00018484FF0FF010170002080F309881648BD
:1001B000016881F3088815484FF08051016062B6EC
:1001C000FEE772B6EFF3098028B1203880E8F00F1F
:1001D0000F490968086000B50E4880475DF804EBD8
:1001E0000D480E490A78027009480D490A680260F4
:1001F000106890E8F00F203080F309884EF0040E6C
:1002000062B6704722ED00E03000002004ED00E00F
:10021000FC000020892100088E0000208F000020B3
:10022000000100202DE9F0418AB000F067F809A82C
:1002300001F0D6FB00F0C6F8002406AA09AE03259B
:10024000059482E870004FF006081B4905208DE8F0
:1002500003014027CDE903742346184A18A11B481F
:1002600001F020FC06A8059480E8700018490420DD
:100270008DE803011548CDE903740023154A16A142
:10028000C83001F00FFC06A8CDF80880059480E87E
:10029000700014490023CDE90051CDE90374124ADE
:1002A00012A1154801F0FEFB084809A9C83803F05F
:1002B000DBFC0AB0BDE8F08128060020C51200086A
:1002C000706134207461736B00000000D001002065
:1002D0002807002001130008706135207461736BDA
:1002E0000000000028080020A9460008757361720C
:1002F0007431207461736B006003002010B500F04E
:1003000005F8BDE8104001F019B8000010B500F084
:10031000D7FB04490968BDE81040B0FBF1F002F0DA
:10032000E1B8000070480008FEE70000054910B57C
:100330000020486000F0A6F800F006F8BDE8104084
:1003400000F086B8100000202DE9F041104D002487
:1003500027462C806C80AC60EC606C61AC612C61D9
:10036000FFF7E4FE804600266C6100F049F800F0DB
:1003700057F86869761C36040744360CF4D0C5E992
:1003800004744046AC61BDE8F041FFF7D3BE000005
:100390001000002003490969884201D9401A7047BA
:1003A000002070471000002010B5FFF7BFFE044981
:1003B0004C69FFF7BFFE2046BDE81040FFF7EABFDB
:1003C0001000002010B5FFF7EFFF0446FFF7AEFE68
:1003D000034A00215161FFF7ADFE204610BD000029
:1003E0001000002010B5FFF7A1FE04498C69FFF74B
:1003F000A1FE2046BDE81040FFF7CCBF1000002052
:1004000010B5064C2088401C2080608810B900F090
:1004100051F8A0606088401C608010BD1000002072
:1004200010B50A4C6088401E0004000C60800CD19E
:1004300000F040F8E060A168401A6169814200D292
:100440006061A169814200D2A06110BD100000204E
:1004500010B5FFF76BFE0446FFF7D2FF10210548E9
:1004600000F0F5FFFFF7DCFF2046BDE81040FFF786
:1004700061BE00008009002001494860704700000B
:1004800010000020094810B5016841F0807101603A
:10049000074800214160016841F00101016000F05E
:1004A0000FFBBDE81040FFF7E7BF0000FCED00E0E8
:1004B000001000E00148406870470000001000E0B4
:1004C000704772B6FEE700002DE9F84FDFF8B891EB
:1004D000002409F1040A0AF1040B23460F270BF14B
:1004E000040EC9E00125A5402A40AA427DD1674EED
:1004F000D1F804C0ACEB0608B44532D014DCBCF132
:10050000030F3AD009DCBCF1000F2AD0BCF1010F77
:100510001CD0BCF1020F31D11DE0BCF1110F17D07E
:10052000BCF1120F2AD119E0B8F5881F19D006DCEA
:10053000B8F5803F15D0B8F5801F1FD111E0B8F590
:10054000001F0ED0B8F5041F18D10AE0CB6815E0E3
:10055000CB681B1D12E0CB6808330FE0CB680C336F
:100560000CE08B682BB1012B4FF0080303D04561E1
:1005700004E0042302E0056100E00023FF2A01D823
:10058000064601E000F104064FEA840501D9A5F111
:100590002005D6F8008007FA05FC28EA0C0803FAC3
:1005A00005F548EA0508C6F800804D68ED0062D5FB
:1005B000374DAE6946F00106AE61AD6924F0030621
:1005C00005F001050095334D06EB050CDCF80850ED
:1005D000A607360F07FA06F825EA0805DFF8B880FF
:1005E000404503D14FF0000817E044E0DFF8AC804D
:1005F000404502D14FF001080FE0DFF8A4804045EC
:1006000002D14FF0020808E0DFF89880404502D19F
:100610004FF0030801E04FF0040808FA06F848EA32
:100620000508CCF808804D68D9F80060ED034D4608
:1006300001D5164300E096432E604D68DAF800605D
:10064000AD03554601D5164300E096432E604D6834
:10065000DBF80060ED025D4601D5164300E09643ED
:100660002E604D68DEF80060AD02754601D5164378
:1006700000E096432E60641C0D682A46E5407FF436
:1006800031AFBDE8F88F00000004014000001110F8
:10069000001002400000014000080140000C014031
:1006A0000010014000140140C26821EA02030A4020
:1006B00043EA0241016170470AB1016170470904D0
:1006C000FBE7000001488068704700000000002040
:1006D000074810B5016841F010010160032000F0E7
:1006E00067F80F2000F006F800F024F8002010BD95
:1006F0000020024070B50D4D04464FF47A71287801
:10070000B1FBF0F00A490968B1FBF0F000F003FD1D
:1007100048B9102C07D200222146501E00F028F8BC
:1007200000206C6070BD012070BD00000000002042
:100730000C0000200C4808B5816941F0010181617D
:10074000816901F001010091C16941F08051C161ED
:10075000C06900F0805000900448416821F0E061D9
:1007600041F00071416008BD0010024000000140EE
:10077000F0B40E4B1B680C46C3F30223C3F107050C
:10078000042D00D90425191D072901D2002300E0FA
:10079000DB1E012606FA05F1491E214099409E40C4
:1007A000761E16403143F0BC03F0B6BF0CED00E0FE
:1007B000064900F0070208684FF6FF03184040EAB8
:1007C0000220034A10430860704700000CED00E06F
:1007D0000000FA05014901200862704700000E423E
:1007E00010B529A401461DCC86B08DE81D002AA0B5
:1007F0002A4C006804900020012923D002293AD015
:1008000010291DD161682268D20119D5C1F3834234
:10081000C9031DF8020009D5616804AAC1F340416B
:10082000515C1F4AB2FBF1F1484301E01D494843C6
:100830006168490204D440005FF00301B0FBF1F0AD
:1008400006B010BD226AC2F30121012903D192072B
:1008500001D5C803F4E7022905D1626A920702D5DF
:1008600049F64040ECE70329EAD121688903E7D53E
:100870004FF22440E4E700F039F96168C1F38131B7
:10088000491C4900DAE700000203040506070809CD
:100890000A0B0C0D0E0F1010010200000010024098
:1008A00000127A0000093D002DE9F8430546007862
:1008B000354CC00754D0E0690026C00008D4E06978
:1008C00040F08050E061E069012600F08050009027
:1008D0002E480168C90512D40168804641F4807130
:1008E0000160FFF7EFFE074605E000BFFFF7EAFEF5
:1008F000C01B642823D8D8F80000C005F6D5206AAC
:1009000010F4407021D0A98801F4407181421CD0BC
:10091000206A1F49012220F440700A6000220A6008
:100920002062C00711D0FFF7CDFE074641F288389C
:1009300008E000BFFFF7C6FEC11B414502D90320F6
:10094000BDE8F883206A8007F4D5206A696820F43E
:100950004070084320621EB1E06920F08050E061E1
:100960002878800705D56068A96820F440400843CE
:1009700060602878C00605D56068E96820F48000CA
:10098000084360600020DBE7001002400070004078
:10099000400442422DE9F0470F46050061D0434E26
:1009A000306800F00700B84209D2306820F0070034
:1009B00038433060306800F00700B84251D12868F1
:1009C0003B4C810712D5400703D5606840F4E060D6
:1009D00060602878000703D5606840F4605060606C
:1009E0006068A96820F0F000084360602878C007BC
:1009F00028D06868012810D02168022810D0890703
:100A000000292EDA616821F0030101436160FFF7DC
:100A100059FE804641F288390DE021688903EFE7ED
:100A20008901EDE7FFF74EFEA0EB0801494502D929
:100A30000320BDE8F0876068696800F00C00B0EB47
:100A4000810FEFD1306800F00700B8420BD9306851
:100A500020F0070038433060306800F00700B842EB
:100A600001D00120E5E72878400705D56068E968EE
:100A700020F4E060084360602878000706D56068CD
:100A8000296920F4605040EAC100606000F03EF83F
:100A90006168084AC1F30311515CC8400649086007
:100AA00006480068FFF726FE0020C2E7002002404B
:100AB00000100240104800080C0000200400002034
:100AC00001480068704700000C00002004480549F8
:100AD00000684968044AC1F30221515CC84070476C
:100AE0000C0000200010024020480008044805497E
:100AF00000684968044AC1F3C221515CC84070478C
:100B00000C000020001002402048000812A185B00F
:100B10000FC98DE80F0014A0144A006804905168B2
:100B2000134801F00C03042B10D0082B0ED1C1F395
:100B30008343C9031DF803000AD5516804AAC1F311
:100B40004041515C0A4A5043B0FBF1F005B0704798
:100B500008494843FAE700000203040506070809AC
:100B60000A0B0C0D0E0F10100102000000100240C5
:100B700000127A0000093D002DE9F84F040070D002
:100B80002078C04DC00749D06868C0F381000128B3
:100B900007D06868C0F38100022809D16868C003E3
:100BA00006D52868800339D560680028E7D035E08D
:100BB0006068B0F5803F0BD010B1B0F5A02F11D018
:100BC000286820F480302860286820F4802002E023
:100BD000286840F480302860606890B1FFF772FDAB
:100BE00006460AE0286840F480202860F0E700BF4D
:100BF000FFF768FD801B642873D828688003F7D549
:100C00000CE0FFF75FFD064605E000BFFFF75AFD69
:100C1000801B6428F0D828688003F7D420789A4E87
:100C200080074FF001094FF0000839D5686810F0CF
:100C30000C0F07D06868C0F38100022809D16868EA
:100C4000C00306D42868800714D52069012808D17C
:100C500010E02069B0B1C6F80090FFF733FD0746F9
:100C600005E00AE1FFF72EFDC01B0228C4D8286862
:100C70008007F7D52868616920F0F80040EAC100D4
:100C800028600DE0C6F80080FFF71CFD074604E071
:100C9000FFF718FDC01B022823D828688007F7D467
:100CA000207800072CD57948A169D9B1C0F8009007
:100CB000FFF708FD074604E0FFF704FDC01B02280C
:100CC0000FD8686A8007F7D571484FF4FA51006869
:100CD000B0FBF1F0009000BF0098411E0091FAD2E5
:100CE0000EE080E0C0F80080FFF7ECFC074604E06F
:100CF000FFF7E8FCC01B022875D8686A8007F7D4A4
:100D00002078400760D5E8690027C00008D4E8696A
:100D100040F08050E861E869012700F080500090C1
:100D20005C480168C90513D40168834641F48071A9
:100D30000160FFF7C7FC824606E000BFFFF7C2FC78
:100D4000A0EB0A0064284ED8DBF80000C005F5D5FA
:100D5000E06801280AD008B1052813D0286A20F0DD
:100D600001002862286A20F0040002E0286A40F0AE
:100D700001002862E06841F2883B98B1FFF7A2FCCD
:100D800082460BE0286A40F004002862EEE700BFCC
:100D9000FFF798FCA0EB0A0159455AD8286A80074A
:100DA000F6D50CE0FFF78EFC824605E0FFF78AFCE3
:100DB000A0EB0A0159454CD8286A8007F6D41FB128
:100DC000E86920F08050E861E06988B36968C1F3A0
:100DD0008101022944D00228C6F8608004D0FFF7C0
:100DE00071FC044638E034E0FFF76CFC074604E091
:100DF000FFF768FCC01B02282BD828688001F7D4B5
:100E0000206AB0F5803F05D16868A16820F4003001
:100E100008436860D4E908010843696821F4741143
:100E200008436860C6F86090FFF74CFC044606E093
:100E300025E000BFFFF746FC001B022809D8286800
:100E40008001F7D51BE000BFFFF73CFC001B022828
:100E500002D90320BDE8F88F28688001F4D40EE0A1
:100E60000128F7D06868226A00F48031914204D1E9
:100E7000616A00F47010884201D00120EAE7002086
:100E8000E8E70000001002400000424280044242B5
:100E90000C0000200070004070B5040003D0607C9E
:100EA000002610B105E0012070BD2674204600F038
:100EB00043F802206074204600F010F9042578BB46
:100EC000204603F080FA58BB2068416821F00701F2
:100ED0004160A06820B11748016821F0010101605C
:100EE0001448001F0168A26821F460711143016079
:100EF0006068411C04D10120FFF772FC80B1401EE4
:100F000021688A6822F00F0242EA10428A60216852
:100F1000CA6860F30F02CA60204603F06FFA08B196
:100F20006574C0E7E67301206073A07360740020ED
:100F300070BD0000306C004008B500680849884268
:100F40000DD1FFF747FC0748C16941F00061C1615D
:100F5000C069054900F0006000900120086008BDEC
:100F600000280040001002403C0442422DE9F041BC
:100F70000D4604003BD0C5B3207C01283AD04FF089
:100F8000010884F8108002206074E87872B303F0DE
:100F900011FAE073687803F00DFA6073A87803F033
:100FA00009FAA073C2B2617BE07B03F059FA2073A7
:100FB0002870204603F044FA4FF46161B0FBF1F170
:100FC000002518292DD91822B1FBF2F1A1EB01114E
:100FD00001EB4101C1EB011100EBC1163146204686
:100FE00003F07DFA0427C8B90BE000E004E001201B
:100FF000BDE8F0810220FBE7E07368786073A878B1
:10100000CFE7204603F015FA411C0AD0B04208D2BF
:1010100006490144204603F04EFA10B16774257466
:10102000E5E784F8118025740020E1E78051010094
:101030002DE9F0410D46040024D01DB3207C012889
:1010400023D04FF0010884F81080022060742878C3
:10105000EAB103F0AFF94FF4616100FB01F6687883
:1010600003F0A8F9C0EB001006EB8006A87803F0A7
:10107000A1F935182946204603F031FA0026042745
:1010800010BB0FE00120BDE8F0810220FBE74FF428
:10109000616148436978C1EB011100EB8100A978D7
:1010A0004518E7E72068416821F0050141602046C6
:1010B00003F0BFF9411C0AD0A84208D206490144F6
:1010C000204603F0F8F910B167742674DAE784F863
:1010D000118026740020D6E78051010070B504000D
:1010E0000AD02068416821F008014160FFF7EAFA60
:1010F00005464FF47A7608E0012070BDFFF7E2FA6A
:10110000401BB04201D9032070BD20684068000731
:10111000F4D5002070BD10B5401EB0F1807F01D322
:10112000012010BD4FF0E02460610F21601703F033
:10113000F3FA0020A06107202061002010BD70B5E7
:10114000040004D094F83D00002510B106E0012011
:1011500070BD84F83C50204600F022F8242084F82A
:101160003D002068C16821F40051C160204603F0B1
:101170000DFA2068016921F49041016120684169FC
:1011800021F02A0141612068C16841F40051C16029
:101190002564202084F83D0084F83E00002070BDC6
:1011A00030B585B000240094019402940394006843
:1011B0001449884224D11448816941F480418161F5
:1011C000816901F480410491816941F004018161E8
:1011D00080690E4D00F0040004904FF40070009000
:1011E000022001900320039069462846FFF76CF91E
:1011F0002815CDE90004694628460294FFF764F9F2
:1012000005B030BD00380140001002400008014028
:101210002DE9F843044690F83D001F4616460D465A
:1012200020284CD1C5B1BEB194F83C00012846D06D
:10123000012084F83C004FF00008C4F840802120D1
:1012400084F83D00FFF73EFAA6848146E684A06854
:10125000B0F5805F03D004E00120BDE8F883206989
:1012600028B12E465FF0000584F83C800EE0002691
:10127000FAE78021204603F0E5F9A0B9AEB116F8EF
:10128000010B21684860E08C401EE084E08C4B46F6
:101290004FF0000200970028EBD14FF040012046AC
:1012A00003F0D0F930B10320D7E735F8020BC0F3D3
:1012B0000800E6E7202084F83D000020CDE702206A
:1012C000CBE7FEE70EB5FFF719F8FFF72FF800F0B0
:1012D000C3F802A800F084FBFFF774F8074D002460
:1012E00002AE10212846FFF7DFF90023CDE90046C2
:1012F00001221946184600F0F1FFF2E7000801400C
:101300000EB5FEF7FBFFFFF711F800F0A5F802A8F5
:1013100000F066FBFFF756F8074D002402AE2021CF
:101320002846FFF7C1F90023CDE9004603221946FC
:10133000184600F0D3FFF2E70008014030B585B051
:10134000002418480094019402940394816941F0A8
:1013500010018161816901F010010491816941F0FE
:1013600020018161816901F020010491816941F0CE
:101370000401816180690C4D00F00400049000229A
:1013800030212846FFF798F9302000900120CDE960
:1013900001040220039069462846FFF795F805B03E
:1013A00030BD000000100240000801401CB50024C0
:1013B00017480194154900940160611EC0E90114A9
:1013C000FFF76AFD08B1FFF77CF88DF804408DF84F
:1013D00005408DF80640012201A90D48FFF728FEBF
:1013E00008B1FFF76EF801208DF800008DF80100BC
:1013F0008DF8020002468DF8034069460448FFF765
:10140000B5FD002801D0FFF75CF81CBD00280040A6
:10141000280900200C4810B50A4901604FF4E13159
:101420004160002181600C22C160C0E90412816129
:10143000C161FFF784FE002803D0BDE81040FFF72C
:1014400040B810BD003801403C090020FEE70A46C4
:10145000002100F023B800000D480E490246C0E903
:10146000001200218160C160016141618161C1613F
:1014700001620163C162416200F148018163C1639D
:101480004FF4A051016441640348026070470000BA
:1014900090090020484541502C00002010B5002A3A
:1014A00021D000281FD000244FEA04035B1C41EA2E
:1014B0000424042BFAD310F0030305D10BE000BF82
:1014C000521E00F8011B5B1C002A0CD0042BF7D322
:1014D00001E010C0121F042AFBD202E000F8011B39
:1014E000521E002AFAD110BDFEE77047024800687C
:1014F000002800D0004770474400002010B5044683
:1015000000F0BEF8464800210A22017045480170EB
:1015100045480170454801604548016045480170F3
:1015200045480170454801704548016045480160E3
:10153000454801604548017045480068B0FBF2F03D
:10154000444A1060444A106830B14448006818B1F9
:10155000126802C0521EFCD141480160414801603E
:1015600041480160414801604148016041480160D3
:10157000414801604148017001F0B4FC01F066FD92
:10158000204600F0C5FF2088002847D1204601F002
:10159000B9FA2088002841D1204601F0BFFA2088FE
:1015A00000283BD1204601F053FB2088002835D18C
:1015B000204601F0BDFC208800282FD1204601F0F4
:1015C0006DFE2088002829D1204602F0D9F8208815
:1015D000002823D1204601F009FA208800281DD1D7
:1015E000204601F0A1F82088002817D1204602F0FB
:1015F00033FD2088002811D1204602F01FF82088F2
:1016000000280BD1204602F07BFD2088002805D160
:1016100000F07CFFBDE81040FFF767BF10BD000081
:101620005800002060000020A8000020FC000020DE
:10163000000100208E0000208F000020900000207C
:101640009C000020A0000020A4000020B00000208A
:1016500070480008AC0000204C48000848480008CA
:10166000380000203C000020400000204400002002
:10167000480000204C00002050000020DE00002028
:1016800030B5094B0020094A0446196801E010C131
:10169000401C1568A842FAD31868054900EB85007C
:1016A000001F086030BD0000484800084C48000892
:1016B000300000201A4810B5007801282FD1FEF71D
:1016C00035FD184A0446117829B1491E11F0FF0072
:1016D000107022D103E0BDE81040FEF72BBD124888
:1016E0000078D0B901F0ECFB10490870104900EB0C
:1016F000400051F820100F4801600F4800688142F7
:101700000BD051F8900F401C08600C480168491C30
:1017100001600B494FF0805008602046DBE710BDA8
:101720006000002058000020A80000208F0000204A
:101730000434002000010020FC000020D400002020
:1017400004ED00E0164810B50078002826D11548B1
:101750000078002822D1FEF7E9FC044601F0B0FB36
:1017600011490870114900EB400051F82000104960
:1017700008601049096888420BD050F8901F491C36
:1017800001600D480168491C01600C494FF0805010
:1017900008602046BDE81040FEF7CCBC10BD00003C
:1017A00058000020A80000208F00002004340020F2
:1017B00000010020FC000020D400002004ED00E027
:1017C00070B504461248007810B146F662501DE02C
:1017D00010480078012802D045F6896016E00E4DC9
:1017E0002878FA2802D345F209200FE0FEF79EFC84
:1017F0000646FEF705FE2878401C287001F0EEFC36
:10180000FEF70EFE3046FEF795FC0020208070BDEE
:101810005800002060000020A800002070B5044699
:101820001848007810B146F6655029E0164800784F
:10183000012802D045F6896022E0144D287890B145
:10184000FEF774FC0646FEF7DBFD2878401E10F01C
:10185000FF0028700AD0FEF7E3FD3046FEF76AFC71
:1018600046F663500CE046F6645009E001F0C4FC13
:10187000FEF7D6FD3046FEF75DFCFFF763FF002064
:10188000208070BD5800002060000020A8000020CB
:1018900070B50F4D0446287818B145F68A6020804F
:1018A00070BD01F00DFB0B4908700B4908700B4926
:1018B00000EB400051F82000094908600949086020
:1018C00001202870FEF76CFC43F69920E7E7000042
:1018D000600000208F0000208E00002004340020D3
:1018E00000010020FC0000202DE9F0410646FEF733
:1018F0001DFC0546FEF784FD2E48002404602E489A
:1019000004802E4804802E4804602E4804602E482F
:1019100004602E4804602E4804602E480481FEF7BF
:101920007FFD2846FEF706FCFEF700FC0746FEF7A3
:1019300067FD2948056818E0FEF7F8FB0746FEF743
:101940005FFDC5F8B440C5F8B84045F8784F2C6342
:10195000AC61AC82EC826C62AC62FEF7ABFD45F828
:10196000200FA5F134008481AD6AFEF759FD384699
:10197000FEF7E0FB002DDFD1FEF7D8FB0746FEF7B0
:101980003FFD1648056806E0FEF7D0FB0746FEF768
:1019900037FDAC85AD69FEF743FD3846FEF7CAFB5F
:1019A000002DF1D102F072FA02F078FC3480BDE82B
:1019B000F0810000740000206E000020BE000020B6
:1019C000D0000020E4000020EC0000205C0000209B
:1019D000A0000020F8330020D80000209400002050
:1019E000F8B504466946244800F0A4FBBDF80000A1
:1019F00058BB6A460021022000F0FAFBBDF8000047
:101A000018BBFEF793FB0746FEF7FAFC1B4E0025BA
:101A10003560FEF705FD3846FEF78CFB184919487E
:101A20000A6803689A4202D9B2FBF3F010B90A219E
:101A3000B2FBF1F06A46002100F0DAFB69460E487D
:101A400000F0F2F9BDF8000008B12080F8BDFEF703
:101A50006DFB0746FEF7D4FC0B480C490560306867
:101A600008600B4901200870FEF7DAFC3846FEF7E3
:101A700061FB2580F8BD000014370020C000002065
:101A8000704800085C480008D0000020C400002016
:101A9000CC00002002480068002800D000477047B2
:101AA000480000202DE9FF4F83B004467248DDE96D
:101AB0001785DDE910960078DDF854A0139F10B16A
:101AC00047F24A102AE04CB1059850B166B16B4814
:101AD000006887420BD246F630601FE047F2AD1037
:101AE0001CE047F24F1019E046F62F6016E01298FE
:101AF000B84202D346F6316010E046F27320B9F1E5
:101B0000200F0BD25FEA090103D0B9F11F0F02D0F9
:101B100008E05B4900E05B498C4203D0288007B0B5
:101B2000BDE8F08F204601F03BFE4FF0000BA5F81A
:101B300000B05FEAC8700AD05FEA887007D5304607
:101B400000215A4601E004C0491CB942FBD3129857
:101B5000CDE9007806EB8005DDE905012B4632462C
:101B600000F0B0FA0599A1620699E1620499216238
:101B700084F83790C4F854A0A56020605FEA0A009A
:101B800024D0A0651698A76366626060A4F83C80C4
:101B90000020594604EB8002401CD16710F0FF0082
:101BA000F8D004F16400149901F006F8204600F022
:101BB00075F8FEF7BBFA0646FEF722FC324D287890
:101BC000401CC0B22870012803D004E02F480068F0
:101BD000D7E701F003FBFEF723FC3046FEF7AAFA35
:101BE00094F8370001F084F9204601F075FA204698
:101BF00001F098FD26490888401C08802548007897
:101C0000012821D0FEF792FA0446FEF7F9FB287866
:101C1000401E10F0FF0129700ED101F0EDFA1E48B0
:101C2000008848B1FEF7FCFB2046FEF783FA07B0B8
:101C3000BDE8F04F01F0AEBAFEF7F2FB07B0204668
:101C4000BDE8F04FFEF776BAFEF770FA0446FEF7ED
:101C5000D7FB2878401E10F0FF01297001D101F058
:101C6000CBFAFEF7DDFB2046FEF764FA07B0BDE8CD
:101C7000F04FFFF767BD0000580000206C480008D7
:101C80003033002068320020A8000020AC00002083
:101C9000DC000020600000206C0000200249096880
:101CA000002900D008477047380000202DE9F04196
:101CB000044652480E46007810B147F24E100AE032
:101CC0004F48844202D147F24C1004E04D48844210
:101CD00004D147F24D100880BDE8F0815CB9FEF7F1
:101CE00025FA0546FEF78CFB47480468FEF798FB8B
:101CF0002846FEF71FFAFEF719FA0746FEF780FBA3
:101D0000424D2878401CC0B22870012801D101F052
:101D100065FAFEF785FB3846FEF70CFA94F83600B4
:101D200008283DD2DFE800F004080C0C1C080C0C5D
:101D3000204601F005FA13E0204602F08BF80FE090
:101D4000204602F087F894F83400072808D2DFE82C
:101D500000F00704070404040400204601F023F8FF
:101D600004F1640000F00EFF204600F055F8204614
:101D700001F0EAFC26490888401E0880204601F050
:101D80000FFDFF2084F83600FEF7D0F90446FEF779
:101D900037FB2878401E10F0FF00287021D022E089
:101DA000FEF7C4F90446FEF72BFB2878401E10F01E
:101DB000FF0028700CD101F01FFA1648008838B1D6
:101DC000FEF72EFB2046FEF7B5F901F0E3F904E03B
:101DD000FEF726FB2046FEF7ADF946F62D60308073
:101DE0007AE701F009FAFEF71BFB2046FEF7A2F99D
:101DF00000203080BDE8F041FFF7A4BC580000206F
:101E00006832002030330020FC000020A8000020B1
:101E1000DC0000206C00002002490968002900D085
:101E2000084770473C0000207FB50D460446FEF78A
:101E30007DF90646FEF7E4FA1CB1144800688442B6
:101E400008D1FEF7EDFA3046FEF774F947F2571065
:101E500028807FBDFEF7E4FA3046FEF76BF90C48A8
:101E6000007858B10020CDE90205009003460246F3
:101E700001902146074800F08BFC7FBD04B0294645
:101E80002046BDE8704001F09FBD0000FC0000202E
:101E9000580000205452455302490968002900D0D7
:101EA00008477047400000202DE9F0478146574819
:101EB00014461E460078884610B146F2AE1006E081
:101EC000080006D0B1F5004F03D045F62560188014
:101ED0003DE0002704B12760FEF728F98246FEF7AF
:101EE0008FFA4B4D2968486CD8B1401E8046486433
:101EF0000CB1086C2060FEF7DDFA29680A6C801AC4
:101F0000C1F8A400D1F8A820824201D2C1F8A800EB
:101F1000FEF786FA5046FEF70DF937804046BDE8D9
:101F2000F0875FEA084007D5FEF77AFA5046FEF7D9
:101F300001F946F2B01009E03648017849B1FEF7E0
:101F40006FFA5046FEF7F6F846F6635030800020F0
:101F5000E5E701218046017001F040F9FEF760FAE3
:101F60005046FEF7E7F800214B460722084600F0EE
:101F70007BFEFEF7DBF88146FEF742FA98F8001088
:101F8000491E11F0FF0188F8001001D101F034F969
:101F9000FEF746FA4846FEF7CDF8FFF7D3FBFEF70B
:101FA000C5F88046FEF72CFA286890F8351031B154
:101FB000012916D003291AD046F62E601BE074B111
:101FC000006C2060FEF776FA29680A6C801AC1F866
:101FD000A400D1F8A820824201D2C1F8A80037801D
:101FE0000AE00CB1006C206046F2A91003E004B1D5
:101FF000276047F2D92030802868446CFEF710FA39
:102000004046FEF797F8204689E700005800002078
:10201000FC000020A80000202DE9F04705462748D5
:1020200016460F4600781C4610B147F259100AE0D8
:1020300046F2D5203FB136B1FEF778F88146FEF77B
:10204000DFF91DB104E01880BDE8F0871C48056881
:102050004FF00008286858B195F83C00C00713D02D
:10206000FEF7DEF94846FEF765F80020696A1AE0D7
:10207000FEF7D6F94846FEF75DF8C7F8008047F24C
:102080005210C6F800800AE0FEF7CAF94846FEF78B
:1020900051F8C7F8008047F25410C6F8008020803D
:1020A000D2E7401C091D0A68002AFAD03860A96BE3
:1020B000081A3060A4F80080C6E70000580000202D
:1020C000FC00002010B5029C02EB84024FF08074EB
:1020D00042E90204164842F80C0C4FF0123042F864
:1020E000100CA2F114004FF0023240E903134FF03C
:1020F000113140F8101CD10040F8141C4FF0093188
:1021000040F8181C910040F81C1C4FF007314FF0AC
:10211000033440F8201C610040F8241C4FF00531C6
:1021200040F8281D5100C0E9092440F8041D10BDE5
:10213000C93A00081FB5104A904202D147F25B101D
:1021400004E00E4A904203D147F25C1008801FBDA4
:102150000B4A127852B10022CDE9022101460092C9
:1021600013460192074800F013FB1FBD04B0BDE801
:10217000104001F079BD00006832002030330020AB
:10218000580000205453555370B51548006800B1ED
:102190008047FEF78FF9134C134A21681268914269
:1021A00007D0D1F89830C31A41F8943F8D682B447A
:1021B0008B60C2F89800FEF705F92168D1F8B420C9
:1021C000824201D2C1F8B400084AD1F8B830106890
:1021D000834201D2C1F8B8000020106070BD000039
:1021E0004C000020FC00002000010020A400002082
:1021F0002DE9F041804636480F461546007810B16B
:1022000047F2752020E0334C207810B146F6635039
:102210001AE047B1022F06D0042F07D0082F02D0B2
:1022200045F6256010E0B8F1000F0BD0FDF77EFFFA
:102230000646FEF7E5F82078401CC0B22070012861
:1022400005D006E047F27E201080BDE8F08100F066
:10225000C5FFFEF7E5F83046FDF76CFF1E4E012185
:102260002B4630683A4680F83610414601F086FD2C
:10227000288898B1FDF75AFF0546FEF7C1F8207887
:10228000401E10F0FF01217001D100F0B5FFFEF7F4
:10229000C7F82846BDE8F041FDF74CBF306800F0B4
:1022A0004FFFFDF743FF0646FEF7AAF82078401ED1
:1022B00010F0FF00207001D100F09EFFFEF7B0F893
:1022C0003046FDF737FFFFF73DFA00202880BCE7D6
:1022D00058000020A8000020FC0000202DE9F04755
:1022E0005C4EDDE90854367816B147F27520ABE054
:1022F000DFF864A19AF8006016B146F66350A3E0D7
:1023000015F00E0647F27E2945F6256705D0022E08
:1023100003D0042E06D0082E07D11BB912B909B973
:1023200000287DD035F01E0C02D02780BDE8F08754
:10233000C5F3001547F2792C47F278284FF47A77E5
:102340003DB142F20F75A94212D900BFA4F800C0F6
:10235000ECE7BB4202D347F27B2075E03B2A02D96F
:1023600047F27A2070E03B29F0D8632802D804E0D5
:10237000B84202D3A4F80080D8E7384D4FF4FA7C75
:10238000C1EB01112D68BCFBF5FC63446B43B3FB4F
:10239000F7F34FF46167784300EB8100104400FBD2
:1023A0000537EFB3FDF7C2FE8046FEF729F89AF82D
:1023B00000005546401CC0B28AF80000012801D137
:1023C00000F00CFFFEF72CF84046FDF7B3FEDFF8F7
:1023D000908001212346D8F80000324680F836105C
:1023E000394601F0CBFC208898B1FDF79FFE0446EA
:1023F000FEF706F82878401E10F0FF01297001D181
:1024000000F0FAFEFEF70CF82046BDE8F047FDF7B5
:1024100091BED8F8000000F093FEFDF787FE00E0C3
:1024200014E00646FDF7ECFF2878401E10F0FF0090
:10243000287001D100F0E0FEFDF7F2FF3046FDF715
:1024400079FEFFF77FF9002020806FE7A4F8009065
:102450006CE7000058000020A80000207048000829
:10246000FC00002000B585B000F01CF8FEF722F853
:1024700004AA002103920091CDE901100648074902
:10248000002300781A4600EB400001EB800104486D
:1024900000F07EF905B000BD8E000020043400205D
:1024A0005449434B02480068002800D00047704759
:1024B0005000002010B5FDF739FE0446FDF7A0FFDF
:1024C00007490878401C0870FDF7AAFF2046FDF771
:1024D00031FEFFF7C7FFBDE81040FFF7EBB8000083
:1024E000580000204FF0E021401E48610648026875
:1024F00022F07F420260086940F005000861086927
:1025000040F002000861704720ED00E070470000D5
:10251000034A00211160034A1180018070470000C6
:10252000780000207C0000202DE9F05F9A4690465C
:102530000D4604460A9FFDF7F9FD8346FDF760FF4F
:102540005FEA080024D0012807D0B0F5004F1FD063
:102550006FF4004118EB010F12D1206A30EA050038
:10256000C4E9080A208A04F108064FF0000990B176
:102570004D4D2878401CC0B22870012815D016E0B7
:10258000FDF74EFF5846FDF7D5FD45F625606CE09A
:10259000206A2843E4E7FDF743FF5846FDF7CAFDEC
:1025A000A7F80090206ABDE8F09F00F017FEFDF745
:1025B00037FF5846FDF7BEFD366833E090F88810C7
:1025C000766801F00F0101291BD0022921D00429CE
:1025D0000DD0082910D0FDF7A9FD0446FDF710FF26
:1025E0002878401E10F0FF0028702AD036E0216ABB
:1025F000D0F88020114009E0216AD0F880201140F5
:102600000BE0D0F88010236A0A4699438A4205D02D
:1026100007E0D0F88010226A914311B1524600F0D1
:1026200047F816B1B0680028C8D1FDF77FFD06460F
:10263000FDF7E6FE2878401E10F0FF00287017D046
:1026400018E000F0D9FD1948008838B1FDF7E8FE20
:102650002046FDF76FFD00F09DFD04E0FDF7E0FE74
:102660002046FDF767FD43F6FF20388000209AE7FB
:1026700000F0C2FDFDF7D4FE3046FDF75BFD5FEADA
:10268000084001D4FFF75EF8FDF750FD0546FDF761
:10269000B7FE246AFDF7C4FE2846FDF74BFDA7F8F8
:1026A000009020467FE70000A80000206C0000207A
:1026B00070B50025C0F8841080F8355080F834508B
:1026C0000446026490F8360008280ED2DFE800F0D5
:1026D0000D0D04040D0D0A0A204601F067F984F877
:1026E000365002E0042084F836002046BDE87040F1
:1026F00000F059BB0A4C0B4DFDF718FD0646FDF7DF
:102700007FFE2068401C20602868401C2860FDF780
:1027100087FE3046FDF70EFDFEF7E8FEECE7000011
:1027200054000020C000002000B50E4A89B00021EE
:1027300011600B2205910691CDE907200A480B4A4A
:102740000B4B006812681B680292CDE903011F2041
:10275000CDE900030023074A07A10C48FFF7A2F9BF
:1027600009B000BD54000020304800082C48000883
:1027700028480008F526000875432F4F532D494976
:10278000492049646C65205461736B0068320020F5
:102790002DE9F84F1D46DDE90CB4DDE90AA916461E
:1027A0000F468046FDF7C2FC0090FDF729FE1D484C
:1027B0001D4A0188128891422DD2491C89B201809C
:1027C0001A4802888A4200D2018019490868C0F874
:1027D0000080C0E902760582C0F814A0A0F8189025
:1027E000C0F81CB0406808601248012101811249FC
:1027F00001604160002000F07BFB1048007808B1C8
:102800000F49087000202080FDF70AFE0098BDE8FF
:10281000F84FFDF78FBC0B490888401C088044F234
:102820005360F0E76C000020384800086E0000207C
:102830006400002004340020303300208E0000208B
:1028400090000020700000203EB5374C374B02A9A5
:1028500020680268D51A9A4245D015DC344BD2184C
:102860002DD0344BD21822D0334BD21832D0334B28
:10287000DA4208D1C269CDE90021038B028AC1681E
:10288000806800F0F1FF3EBD2D4AAA181ED02D4BE6
:10289000D21824D02C4BDA42F5D1C269CDE90021FF
:1028A000038B028AC168806800F04EFB3EBD009138
:1028B000028BC36941698068FFF736FE3EBD018B1C
:1028C000C269806802AB00F0F5FC3EBD806801F093
:1028D0007BF83EBD018BC269806802AB21E0806855
:1028E00001F0C2F93EBD19481949007800EB4000DB
:1028F00001EB800000F09EFC206802AB0021C26961
:10290000144801F0EDF814480168491E0160E9D14E
:10291000124909680160FDF7CDFD024602AB0021B6
:102920000F4801F0DDF83EBD680000205449434BDC
:10293000ADBAB2BE0DF90BFAF2F8F7FF0006F6FFDA
:1029400000F7FDF700FFEFFF03FE0FFE90000020F1
:10295000043400204C360020F8000020F400002051
:10296000143700201D4D1E4C1E4E00BFFDF7DEFB30
:102970000746FDF745FD208808B3FDF751FD3846B1
:10298000FDF7D8FBFDF796FD0746FFF75DFFFDF766
:1029900091FD2968C01B814200D22860FDF7C6FB6B
:1029A0000746FDF72DFD3068406830602088401EE6
:1029B0002080FDF735FD3846FDF7BCFBD6E70A4918
:1029C000002008810860486000F0A2FAFDF728FDA9
:1029D0003846FDF7AFFBFEF7B5FEC5E774000020F3
:1029E0006C0000206800002004340020F0B52F495E
:1029F0002F4D89B000220A80296831B12D4E3188CF
:102A0000022905D244F2546135E044F2526132E0C9
:102A100029490023294F0A60296801F1200410E0A8
:102A200041F8087B5B1C41F8082B9BB241F8042C51
:102A300021F8102B41F80C2C21F8082C41F81C4CE3
:102A40002034B6F800C06345EAD32B6841F81C3C3B
:102A50001B490B601B490B601B490A801B490A80FC
:102A60001B490B6853B11B4B1B4D1C682D68AC42B6
:102A700007D244F25661018009B0F0BD44F25561BD
:102A8000F9E7032405920692CDE907401868134B35
:102A900009681B68CDE903020092CDE90113002308
:102AA0000F4A10A11648FEF7FDFFE5E77000002071
:102AB0003448000838480008740000204E4F4E4546
:102AC00064000020680000206C0000206E000020E0
:102AD0003C480008444800086C480008404800088A
:102AE0006529000875432F4F532D49494920495303
:102AF00052205175657565205461736B00000000AC
:102B000030330020034A00211160034A1180018004
:102B1000704700008000002084000020F0B5164CB3
:102B2000216859B1154E318859B189B2491E2268C0
:102B30008FB2002502F1100329460EE045F21E7106
:102B400018E045F21D7115E0E2E802316D1C22F833
:102B5000081BADB242F8041C1033BD42F4D311601F
:102B600051601181D160064A2368136033889380D5
:102B7000D18011810180F0BD544800085048000800
:102B8000F833002010B5428992B10A4903680C68F5
:102B90001C6043680B60CB8844891B1BCB808B88EF
:102BA000448923448B8000214181818101604160FF
:102BB000104610BDF8330020018100214181818140
:102BC0000160416070470000F0B54489DDE905E728
:102BD0000589AC4202D346F293501EE01B4DAE88ED
:102BE000CEB12C68761ED4F800C0C5F800C0AE8007
:102BF000EE88761CB6B2EE80B5F808C0B44500D2B7
:102C00002E814689002556B1DB060ED403681C6070
:102C1000046025600CE045F21D703880F0BD046052
:102C2000012344604381256005E0436823604460DC
:102C300043895B1C4381868943899E4200D28381FC
:102C400061602281C4F80CE03D80F0BDF8330020C3
:102C5000034A00211160034A11800180704700007F
:102C6000880000208C0000202DE9F041114D07461E
:102C70000C4628680026194680F8342080F8356014
:102C800000F03AFD64B1FC6004F108060122394607
:102C9000286800F011F83946304600F057F802E095
:102CA0002868C687066320462968BDE8F04100F021
:102CB0001BB80000FC00002010B5C287002423468A
:102CC00001630EE04B6041F8103B641C41F8103B7F
:102CD000A4B241F80C3C21F8083C41F8043C41F80E
:102CE000180C9442EED310BD38B14268C1F8C4202C
:102CF00081688968096AC161704791F834000228C7
:102D000003D0072803D004A002E004A000E005A03F
:102D1000C1F8C40070470000200000005461736BCC
:102D2000205100005461736B2053656D000000005A
:102D300005A2C1F8C420816811B18968096A00E060
:102D400001A1C161704700002000000030B58A6811
:102D5000002392F8374002891AB1521C028102689E
:102D60000BE0012202814B600B60016014E095686A
:102D700095F83750A54203D85268002AF7D107E0EA
:102D800032B1146854B1C1E900426160116030BDD4
:102D90004B6042680A605160416030BD1160C1E91A
:102DA0000032016030BD70B50646C48F056B07E088
:102DB000E8682946083000F009F8641EA4B22035FE
:102DC000002CF5D10020F087306370BD10B502896A
:102DD0000023012A0BD00A6862B14C6874B15460B8
:102DE00022600289521E02814B600B6010BD03609D
:102DF0004360F6E74A6813600260F2E7536042609E
:102E0000EFE7F8B50C46064691F83610002506980F
:102E100008293BD2DFE801F03A3A04043A3A20208C
:102E200094F83410032911D0E265A4F860302064CE
:102E300036B12046FFF7B7FF21463046FFF778FF4F
:102E4000204600F0B3FD84F836501BE00090214688
:102E5000304600F022F8EBE794F83410032916D03E
:102E6000E265A4F860302064204600F0F3FF36B13C
:102E70002046FFF798FF21463046FFF759FF042010
:102E800084F8360084F8355084F83450F8BD00904A
:102E90002146304600F001F8E6E770B50C6B049D62
:102EA000C98F0AE0E668864204D1C4E9040223839C
:102EB000E56170BD491E89B220340029F2D170BD90
:102EC00010B50024064802E02034E4B2001D016879
:102ED0000029F9D00846FDF734F92044C0B210BDEE
:102EE00034000020014900200860704734000020B1
:102EF00000F01F0241090120C2F11F029040034A65
:102F000052F82130034342F821307047340000204A
:102F100000F01F0241090120C2F11F029040034A44
:102F200052F82130834342F82130704734000020AA
:102F3000034A00211160034A11800180704700009C
:102F400094000020980000202DE9FF4F83B01F4619
:102F5000DDE9109A93460646FDF7E8F80546FDF7C9
:102F60004FFA384C2078401CC0B22070012801D1A3
:102F700000F034F9FDF754FA2846FDF7DBF8358AFE
:102F800006F108001DB1B90530D500683CE0F8062F
:102F900001D4002300E01023CDE9009A5A4606F13F
:102FA00020000499FFF710FEFDF7C0F80546FDF775
:102FB00027FA2078401E10F0FF0121700ED100F09A
:102FC0001BF92148008848B1FDF72AFA2846FDF789
:102FD000B1F807B0BDE8F04F00F0DCB8FDF720FA1B
:102FE00007B02846BDE8F04FFDF7A4B800680125FA
:102FF0005B46D0E90181CDF800903046049AFFF796
:1030000000FF6D1E4046ADB2002DF1D1FDF78EF8E8
:103010000546FDF7F5F92078401E10F0FF002070FE
:1030200001D100F0E9F8FDF7FBF92846FDF782F839
:10303000380401D4FEF786FB0021AAF8001007B07F
:10304000BDE8F08FA80000206C0000200020074B96
:10305000014600BF00EB400203EB8202401C1181DD
:103060001160C0B251602028F4D3704704340020AE
:1030700010B5044690F83700FFF73AFF074994F877
:10308000370009788842204603D1BDE8104000F09F
:1030900023B8BDE8104000F003B800008E00002007
:1030A00090F837100B4A01EB410102EB810100223D
:1030B0000B8943B15B1C0B810B68C0E903320A68C2
:1030C00010610860704701230B81C26002610860D3
:1030D000486070470434002090F837100A4A01EB2A
:1030E000410102EB810100220B893BB15B1C0B818A
:1030F000C2604A680261D0604860704701230B815A
:10310000C26002610860F7E70434002010B502894C
:10311000002A14D0012A12D00021022A07D0D0E9B7
:103120000024D3681961C2E90314E26005E0D0E924
:103130000023C2E90313C3E90321C0E9003210BD33
:1031400070B5054690F83700114900EB400001EBDF
:103150008001D5E90302002442B10B895B1E0B817B
:10316000D06090B102612C61EC6070BD28B10A8919
:10317000521E0A8104610860F5E70C810C604C6006
:1031800095F83700FFF7C4FEEDE74A60EBE7000073
:103190000434002010B5FCF7C9FF0B4A0021117060
:1031A0000B4A0A49116051F8902F521C0A600949D4
:1031B0000A68521C0A60084A4FF080511160BDE84D
:1031C0001040FCF7B7BF00008F0000203033002014
:1031D00000010020D400002004ED00E0044810B5F8
:1031E0000078012803D1FDF765F90249086010BD98
:1031F000A80000209C0000200A4810B50078002894
:103200000ED1FDF757F908490968401A07490A68BD
:10321000824200D2086006490A68824200D20860F1
:1032200010BD0000A80000209C000020A00000208D
:10323000A400002070B5044614480078012824D169
:10324000FCF774FF0546FDF7DBF82168B1B11048C3
:10325000814213D08A6D12B1521E8A650ED1208927
:1032600002280BD30B48007840B92046FFF74EFFE9
:103270002068416D09B9084909688165FDF7D0F8F2
:103280002846BDE87040FCF755BF70BDB000002077
:1032900068320020A8000020AC000020034A002172
:1032A0001160034A1180018070470000B4000020C3
:1032B000B80000202DE9F84F1E4690468946044686
:1032C000FCF734FF0090FDF79BF8208A04F1080713
:1032D0004FF0000B50B1DFF8BCA09AF80010491C69
:1032E000C9B28AF8001001291AD01BE0256A681CAF
:1032F0000CD06D1CC4E90858FDF792F80098FCF753
:1033000019FFA6F800B02846BDE8F88FFDF788F849
:103310000098FCF70FFF46F6C55030800020F3E719
:10332000FFF75CFFFDF77CF80098FCF703FF5FEA0E
:10333000895002D53D893F680CE03F680125002394
:10334000B9687F681A462046CDF80080FFF759FD1E
:103350006D1EADB2002DF2D1246AFCF7E7FE0546E2
:10336000FDF74EF89AF80000401E10F0FF008AF8B2
:10337000000001D1FFF740FFFDF752F82846FCF7A7
:10338000D9FE5FEA094001D4FEF7DCF9A6F800B0E7
:103390002046B9E7A80000200EB5964C964E20684E
:1033A000450004E028466A460021FEF721FF3078F8
:1033B0000128F7D16846FEF797FA9048226801681D
:1033C000914206D90A462168B2FBF1F15FEA010891
:1033D00003D100680A21B0FBF1F8DFF824B2894F6D
:1033E00042F2107A5FF00006FDF764F80190FCF7F6
:1033F000F9FF85490860FCF799FE0546FDF700F8DE
:103400008248834C016821600660FDF709F8284670
:10341000FCF790FE7F48236802689A422BD97E48C9
:10342000824202D25046012115E07C48824203D2FA
:103430004FF47A700A210EE07948824202D2642069
:10344000014608E07748824203D20A204FF47A719D
:1034500001E001205146B2FBF1F15843B0FBF1F01D
:10346000AAEB0000704980B2ABF800000A888242E3
:1034700003D2088001E0ABF800A0FEF70BFB0024AC
:10348000FCF754FE8146FCF7BBFF3D6842E000BFFD
:10349000FCF74CFE0290FCF7B3FFDFF8909199F82F
:1034A0000010491CC9B289F80010012901D1FFF7A9
:1034B00095FEFCF7B5FF0298FCF73CFED5F89C00A2
:1034C000C5E92760FCF732FE0290FCF799FF99F8F6
:1034D0000010491E11F0FF0189F800100CD1FFF710
:1034E0008BFE5348008838B1FCF79AFF0298FCF72E
:1034F00021FEFFF74FFE04E0FCF792FF0298FCF775
:1035000019FE55F8A00F0444FCF710FE8146FCF7A5
:1035100077FF2D6AFCF784FF4846FCF70BFE002D71
:10352000B6D12CB33C48844202D25546012015E066
:103530003A48844203D24FF47A750A200EE03848A4
:10354000844202D26425284608E03648844203D2E9
:103550000A254FF47A7001E001255046B4FBF0F0E3
:103560008146FCF7E3FD0290FCF74AFF3C6822E04D
:1035700000250120F4E700BFD4F8A0006843B0FBA9
:10358000F9F080B2504500D95046A4F88C00B4F848
:103590008E10814201D2A4F88E0004F1AC026B4679
:1035A000111D2046FEF738FDFCF7C0FD0290FCF728
:1035B00027FFD4F8C040FCF733FF0298FCF7BAFDB0
:1035C000002CD9D11B480178012903D10670684627
:1035D000FEF78AF9FCF76EFF0199401A16490A684E
:1035E000824200D208606A4600214046FEF700FE93
:1035F000FAE600005C480008CC0000207048000893
:10360000BC000020D80000205C000020C00000208A
:10361000C8000020C4000020801A060000093D00F8
:10362000005A62020084D717BE000020A8000020C4
:103630006C000020BA000020D000002030B51D4AE8
:1036400089B0002111601C4A11601C4A11601C4A9B
:1036500011701C4A11701C4A136843B11B4B1C4D5E
:103660001C682D68AC4205D246F62C6108E046F68F
:103670002B6105E0174C25781F2D04D346F62A61EF
:10368000018009B030BD032505910691CDE90750B1
:1036900011481B6812680068CDE90120CDE90331AB
:1036A0002078009000230D4A0DA11248FEF7FAF988
:1036B000E7E70000C0000020C8000020C400002090
:1036C000CC000020BA0000206048000868480008CC
:1036D0006C480008584800086448000899330008FE
:1036E00075432F4F532D4949492053746174205419
:1036F00061736B008435002038B50446022531B172
:103700006B46022200F03AFBBDF8000028B184F8B5
:1037100036502046FFF714FD38BD032084F83600EC
:10372000F7E70000074B0022C0F8BC20196829B158
:10373000C0F8C010C1F8BC0018607047C0F8C020C5
:10374000FAE70000D8000020D0E92F2100234AB179
:1037500081B1C2F8C010C1F8BC20C0F8C030C0F8B8
:10376000BC307047054A116009B1C1F8BC30C0F8DF
:10377000C0307047C2F8C030F1E70000D800002028
:10378000044A00211160044A1180044A116001803A
:1037900070470000D8000020DC000020D40000208A
:1037A00070B50025056085604560C56005614561AF
:1037B0000446856129A0C4E907506562A562E562F7
:1037C0002563E5872564E565A4F86050002104F1D0
:1037D0006400FFF7F1F96567A567C4F88050A4F8A5
:1037E00088500020C4F8845004EB8001401CCD6751
:1037F00010F0FF00F8D06564C4F8A450C4F8A850D5
:10380000A56384F88A50C4F8B050C4F8AC50A587BA
:103810004FF00040C4E9120525656565A565A4F86B
:103820008C50A4F88E50C4F89050C4F8945034349E
:10383000FCF740FEC4E91905C4F88050C4F8845070
:1038400004F8015B202004F8015B04F8015B04F834
:10385000850B04A020C4C4E9005070BD3F546173BF
:103860006B000000200000002DE9FC5F9946DDE9B7
:103870000C7692468B460546FCF758FC8046FCF7D2
:10388000BFFD474C2078401CC0B22070012801D1F8
:10389000FFF7A4FCFCF7C4FD4046FCF74BFC0DB958
:1038A000404805680020308095F83600DFF8F88041
:1038B000082852D2DFE800F0040426260404262655
:1038C000CDE900764B465246594605F16400FFF7B4
:1038D0007BF9FCF72BFC0546FCF792FD2078401E97
:1038E00010F0FF01217031D1FFF786FCB8F800001D
:1038F00060B3FCF795FD2846FCF71CFCBDE8FC5FB7
:10390000FFF748BC95F834000228D9D153465A46EF
:10391000294600200097FFF774FAFCF707FC0546DC
:10392000FCF76EFD2078401E10F0FF01217001D1E0
:10393000FFF762FCFCF774FD2846FCF7FBFB5FEA2F
:1039400009402AD4BDE8FC5FFDF7FCBEFCF768FD2A
:103950002846BDE8FC5FFCF7EDBBFCF7E7FB05463E
:10396000FCF74EFD2078401E10F0FF0020700CD1B7
:10397000FFF742FCB8F8000038B1FCF751FD2846CB
:10398000FCF7D8FBFFF706FC04E0FCF749FD2846EE
:10399000FCF7D0FB46F62D603080BDE8FC9F0000B0
:1039A000A8000020FC0000206C00002010B5044698
:1039B00000F050FA94F83600400704D42046BDE8E1
:1039C0001040FFF755BB10BD2DE9F0410D460446F0
:1039D000FCF7ACFB0746FCF713FD00262E8094F89D
:1039E0003600082864D2DFE800F0040404040D392E
:1039F0004955FCF715FD3846FCF79CFB47F2531080
:103A0000288037E02F4D2878401CC0B2287001284C
:103A100001D1FFF7E3FBFCF703FD3846FCF78AFB17
:103A200094F88A00401E10F0FF0084F88A0004D148
:103A300084F836602046FFF7B9FFFCF777FB0446B1
:103A4000FCF7DEFC2878401E10F0FF01297001D140
:103A5000FFF7D2FBFCF7E4FC204609E094F88A006B
:103A6000401E10F0FF0084F88A001BD101200EE0F8
:103A7000FCF760FBBDE8F041FDF764BE94F88A00F6
:103A8000401E10F0FF0084F88A000BD1022084F859
:103A9000360007E094F88A00401E10F0FF0084F81A
:103AA0008A0003D0FCF7BCFC3846E1E70320EEE7D0
:103AB000FCF7B6FC3846FCF73DFB46F62D60288047
:103AC000BDE8F081A8000020044808B50068FEF7B2
:103AD000E3F969460020FEF7E9F808BDFC00002084
:103AE0002DE9F84F984691468B460646FCF71EFB9B
:103AF0000546FCF785FC594C2078401CC0B220706C
:103B0000012801D1FFF76AFBFCF78AFC2846FCF785
:103B100011FB0EB9524806680020524FC6F840907B
:103B2000A8F8000096F8360046F6C55A082872D262
:103B3000DFE800F033332F2F33332F2FFCF770FCE7
:103B40002846FCF7F7FAFFF725FB04E0FCF768FCD2
:103B50002846FCF7EFFAA8F800A00020BDE8F88F8F
:103B60006D1C7564FCF7E2FA0646FCF749FC207808
:103B7000401E10F0FF00207047D1FFF73DFB388852
:103B8000F0B3FCF74DFC3046FCF7D4FAFFF702FB2C
:103B900062E096F83400072813D0756C681CDFD1FA
:103BA000FCF7C4FA0546FCF72BFC2078401E10F009
:103BB000FF002070CAD1FFF71FFB38880028C5D04E
:103BC000BCE700231A4631461846CDF80090FFF7AF
:103BD00018F9756CFCF7AAFA0646FCF711FC207878
:103BE000401E10F0FF00207001D1FFF705FBFCF72D
:103BF00017FC3046FCF79EFA5FEA0B402CD401E03C
:103C000003E008E0FDF79EFD26E0FCF709FC3046E6
:103C1000FCF790FA20E0FCF789FA0546FCF7F0FB88
:103C20002078401E10F0FF0020700BD1FFF7E4FA5F
:103C3000388838B1FCF7F4FB2846FCF77BFAFFF72D
:103C4000A9FA04E0FCF7ECFB2846FCF773FA46F609
:103C50002D60A8F80000002528467FE7A800002076
:103C6000FC0000206C0000202DE9F0410D460446C8
:103C7000FCF75CFA0746FCF7C3FB334804B9046859
:103C8000016832488C4209D1017839B1FCF7C8FB90
:103C90003846FCF74FFA46F6635052E0002129807F
:103CA00094F836100126082944D2DFE801F00431E7
:103CB00033393B3B3B3B05460078401CC0B2287083
:103CC000012801D1FFF78AFAFCF7AAFB3846FCF776
:103CD00031FA042084F8360084F88A602046FFF721
:103CE0002FFAFCF723FA0446FCF78AFB2878401EDB
:103CF00010F0FF01297001D1FFF77EFAFCF790FB6D
:103D00004FEA0400FCF716FABDE8F041FDF71ABDD2
:103D1000052000E0062084F8360084F88A6005E07B
:103D20000720F8E714F88A0F401C2070FCF778FB96
:103D30003846E7E7FCF774FB3846FCF7FBF946F634
:103D40002D602880BDE8F081FC000020A800002044
:103D500010B500200146074C074B06E004EBC002FB
:103D6000401C11609180D18080B21A889042F5D3B6
:103D700010BD0000582F002084480008F0B5324CD8
:103D800047F27E2625680024042A08D0B1B32E4EBF
:103D9000082A36680E440BD0C0E9136115E04A1BAF
:103DA000521E12F5803F2AD8521CC0E913120CE0B3
:103DB000826C0A44571B7F1E8F4201D2C26400E00E
:103DC000C664C16C4A1B02658164204AC16C1288BA
:103DD000B1FBF2F602FB16111D4A89B202EBC102D9
:103DE000918889B11168F1B1CE6C761B0E65076DB3
:103DF000B74212D94E6966B13146F5E7FFE7C464B0
:103E00000465C4611E80F0BD4461846101211060BD
:103E10000BE0C0E90541486105E08D6975B1C0E975
:103E20000515686188619188491C9180D58889B29F
:103E30008D4200D2D180C2611C80F0BDC0E9051462
:103E400088611060EFE70000E0000020844800086F
:103E5000582F002010B5C269002A15D00021016535
:103E60001368834204D14369136033B1996104E05C
:103E7000D0E90534636103B19C6141618161C16135
:103E8000C1649088401E908010BD000010B50020D5
:103E90000446064B064A04E003EBC001401CCC80FC
:103EA00080B211888842F7D310BD0000582F00203F
:103EB000844800082DE9F05FFCF738F90446FCF768
:103EC0009FFA554D2878401CC1B22970012901D1B3
:103ED000FFF784F9FCF7A4FA2046FCF72BF9FCF76E
:103EE000E9FADFF8388107464D49D8F800004FF06D
:103EF0000009401CC8F8000009884FF0030AB0FB15
:103F0000F1F201FB1200474980B24FF0040B51F867
:103F1000304074B394F836006669082851D2DFE85F
:103F200000F05004501150295036E06CD8F80010C1
:103F3000421A2265884246D184F836902046FFF71F
:103F400035FD3EE0E06CD8F80010421A2265884248
:103F500039D1C4F85C90A4F86090FCF7ABFA206407
:103F60002046FEF720FF2046FFF720FD84F836901C
:103F700023E028E0E06CD8F80010421A226588425D
:103F800021D184F836B02046FFF764FF19E0E06CD9
:103F9000D8F80010421A2265884214D1C4F85C9007
:103FA000A4F86090FCF786FA20642046FEF7FBFE3A
:103FB0002046FFF74FFF84F836B084F835A084F828
:103FC00034903446A5E7FCF775FA1749C01B0A6818
:103FD000824200D20860FCF7A9F80446FCF710FA08
:103FE0002878401E10F0FF0129700DD1FFF704F969
:103FF0000E48008840B1FCF713FA2046FCF79AF807
:10400000BDE8F05FFFF7C6B8FCF70AFA2046BDE846
:10401000F05FFCF78FB80000A8000020E00000204F
:1040200084480008582F0020E40000206C00002085
:104030001CB5084C00216B4601AA0846FDF734FF69
:10404000BDF800000028F5D120780128F2D1FFF753
:1040500031FFEFE76000002030B504461A4889B010
:104060000025056019480560FFF772FE18480168D1
:1040700041B11849184B0A681B689A4205D247F2A9
:10408000132008E047F2122005E0144A13781F2B92
:1040900004D347F21120208009B030BD0B230595D1
:1040A0000695CDE907340E4B096800681B68CDE919
:1040B0000103CDE90315107800900023094A0AA1F5
:1040C0000E48FDF7EFFCE7E7E0000020E4000020E9
:1040D00078480008804800086C48000874480008C8
:1040E0007C4800083140000875432F4F532D494943
:1040F00049205469636B205461736B004C36002077
:1041000030B52A4A89B00021294B1160294C2A4A2E
:104110001D681DB12468B4FBF5F303E023680A248D
:10412000B3FBF4F313601A46244B274D274C1A6057
:10413000234A1160234A1160002206E005EBC20306
:10414000521C9980D98092B2196023889A42F5D383
:104150001F4B1A6842B11F4A1F4D14682D68AC42AC
:1041600005D247F2483108E047F2473105E01B4CE1
:1041700025781F2D04D347F24631018009B030BDA8
:104180000B2505910691CDE907501068144A1B686C
:104190001268CDE90301CDE90132207800900023B7
:1041A000104A11A11648FDF77DFCE7E7E800002062
:1041B0008848000870480008F4000020F80000203B
:1041C000F0000020EC000020E031002098480008BA
:1041D0008C480008944800086C480008864800088D
:1041E00090480008C542000875432F4F532D494998
:1041F000492054696D6572205461736B00000000A2
:104200001437002070B5022280F82A20204A0129A4
:1042100014681ED0016AE1B11E4A214481611288EE
:10422000B1FBF2F302FB13121B4B92B203EBC2027F
:10423000002315687DB1091BC1611168D1B18D6979
:104240002D1BCD61C669AE420ED90D6945B1294617
:10425000F5E7416AE0E703614361106001200BE08C
:10426000C0E90431086105E04C6964B1C0E9041497
:10427000206148619088401C9080D18880B2814242
:1042800000D2D08070BDC0E9041348611060F1E72E
:10429000F000002098480008E031002010B5002010
:1042A0000446064B064A04E003EBC001401CCC80E8
:1042B00080B211888842F7D310BD0000E0310020A1
:1042C000984800081CB5DFF89090DFF890A0244DC6
:1042D000DFF890B000216B4601AA0846FDF7E4FD27
:1042E0006846FDF76DFAFCF7E5F8064628684FF0DA
:1042F0000308401C2860B9F80010B0FBF1F201FB84
:10430000120080B25AF83040C4B1A0692968276908
:10431000884213D1204600F027F8208D022808D0CB
:1043200084F82A80A26812B12046E16890473C4692
:10433000EAE701212046FFF765FFF3E7FCF7BAF84B
:10434000841B6846FDF76AFADBF80010A142C1D26F
:10435000CBF80040BEE7000098480008E03100209C
:10436000F0000020EC00002010B5104A816912888E
:10437000B1FBF2F302FB13110D4A89B202EBC10249
:10438000002314680169844203D1116029B14B6193
:1043900003E04469216101B14C61012180F82A10D8
:1043A000036143619088401E908010BD98480008CA
:1043B000E0310020010901EB810100F00F0000EB6A
:1043C0004100C0B2704770B50446FCF77BF9054662
:1043D0004FF47A7606E0FCF775F9401BB04201D93C
:1043E000032070BD206840688006F4D520684168CD
:1043F00041F010014160002070BD000070B504461E
:104400000068416821F010014160FCF75BF9054646
:104410004FF47A7607E000BFFCF754F9401BB04236
:1044200001D9032070BD206840688006F4D50020C3
:1044300070BD0168086A496A89B241EA0040704764
:10444000006881698AB2C1698BB2816989B28A4286
:1044500003D0C06961F31F40704743EA02407047D0
:10446000F0B56424C1EBC1030927A500072603EBBF
:1044700001130329B3FBF7F100F5FA60114401447D
:104480000AD2401EB0FBF4F201EB9001B0FBF5F054
:10449000891A0844001D08E0B0FBF4F201EB90011A
:1044A000B0FBF5F0891A0844801CB0FBF6F106FB5E
:1044B0001100C0B2F0BD70B50D4606460024FFF7EE
:1044C00082FF48B93168280C08623168A8B2486296
:1044D0003046FFF793FF00B10124204670BD70B550
:1044E0000D4606460024FFF76EFF48B93168280CD8
:1044F00088613168A8B2C8613046FFF77FFF00B11C
:104500000124204670BD704770B594B028216846DC
:10451000FBF729FE14210AA8FBF725FE002501243C
:104520000F951195052012950090CDE90254109534
:104530004FF48030019002260494CDE907604FF4D7
:10454000E01009906846FCF717FB08B172B6FEE769
:104550000F20CDE90A064FF48060CDE90C5002210E
:104560000AA80E95FCF716FA08B172B6FEE74FF4EA
:104570008070CDE90F400FA8FCF796F9002801D014
:1045800072B6FEE714B070BD7047000070B5044607
:1045900000680169E26821F4405111430161216919
:1045A000A0680843616908432168CA6841F20C6346
:1045B0009A430243CA6020684169A26921F44071AC
:1045C000114341611E492068884202D1FCF78EFAEE
:1045D00001E0FCF77BFA00EBC00101EB0012606820
:1045E00064218000B2FBF0F3B3FBF1F36FF0180627
:1045F0007343B2FBF0F5B2FBF0F605EB8305322313
:1046000003EB0515B5FBF1F5B6FBF1F605F0F0058A
:1046100005EB0615B2FBF0F6B2FBF0F0B0FBF1F0E3
:104620006FF01802504306EB800003EB0010B0FB64
:10463000F1F0216800F00F002844886070BD000090
:10464000003801402DE9F041984617460E460446D1
:10465000069D1DE0681C1BD02DB1FCF733F8A0EBC4
:104660000800A84214D92068C16821F4D071C16043
:104670002068416921F001014161202084F83D005A
:1046800084F83E00002084F83C000320BDE8F0815F
:104690002068006836EA000004D00020B842D9D073
:1046A0000020F3E70120F9E70EB5FBF727FEFBF743
:1046B0003DFEFCF7D1FE02A8FDF792F9FBF782FE62
:1046C000002402AD05A000F01FF8002302221946C5
:1046D0001846CDE90045FDF701FEF3E768656C6C0F
:1046E0006F2075632F4F532120BBB6D3ADC0B4B537
:1046F000BD52544F53B6E0C8CECEF1BBB7BEB30DDA
:104700000A000000FEE70000014A024900F023B859
:1047100079470008040100200907090E002804DB7E
:1047200000F1E02080F80014704700F00F0000F165
:10473000E02080F8141D704702E008C8121F08C16D
:10474000002AFAD170477047002001E001C1121F12
:10475000002AFBD170472DE9F04116460F4604466A
:10476000002503E03946B047641C6D1C2078002802
:10477000F8D12846BDE8F08113B54FF6FF7301224A
:1047800069460548FCF744FD034800680168C943D1
:104790004906FBD400981CBD3C09002000B58BB035
:1047A000FBF796FFFFF7B0FE09A8FCF7A7FEFCF7A2
:1047B000C5FDFCF72FFEFCF7F9FD002009A9032237
:1047C00005900690CDE907210C2202928021CDE9C7
:1047D0000310084B0220CDE900030023064A07A17D
:1047E0000A48FDF75FF909A8FDF752F80BB0002061
:1047F00000BD000028040020250200084170702040
:104800005461736B205374617274000008010020BE
:104810000000000000000000010203040607080970
:104820000000000001020304D81D00200C0000005D
:1048300080000000D81F00200A000000182100207E
:104840000C00000080000000182300208000000001
:1048500064000000182500200B0000000A00000082
:10486000582B00200C0000008000000040000000D9
:10487000E80300000A000000582D00200C00000092
:104880008000000011000B000A000000E02F002053
:104890000C0000008000000011000000BC4800086F
:1048A000000000200801000038470008C449000843
:1048B00008010020D83A0000484700080100000025
:1048C00010000000000000000024F40000000000C0
:1048D00000000000000000000000000000000000D8
:1048E00000000000000000000000000000000000C8
:1048F00000000000000000000000000000000000B8
:1049000000000000000000000000000000000000A7
:104910000000000000000000000000000000000097
:104920000000000000000000000000000000000087
:104930000000000000000000000000000000000077
:104940000000000000000000000000000000000067
:104950000000000000000000000000000000000057
:104960000000000000000000000000000000000047
:104970000000000000000000000000000000000037
:104980000000000000000000000000000000000027
:104990000000000000000000000000000000000017
:1049A0000000000000000000000000000000000007
:1049B00000000000000000000000000000000000F7
:0449C00000000000F3
:04000005080000ED02
:00000001FF
